{
  "contractName": "PropertyRegistration",
  "abi": [
    {
      "inputs": [],
      "payable": false,
      "stateMutability": "nonpayable",
      "type": "constructor"
    },
    {
      "anonymous": false,
      "inputs": [
        {
          "indexed": false,
          "name": "message",
          "type": "string"
        }
      ],
      "name": "successEvent",
      "type": "event"
    },
    {
      "anonymous": false,
      "inputs": [
        {
          "indexed": false,
          "name": "transactionID",
          "type": "string"
        }
      ],
      "name": "properyRegisteredEvent",
      "type": "event"
    },
    {
      "anonymous": false,
      "inputs": [
        {
          "indexed": false,
          "name": "transactionID",
          "type": "string"
        }
      ],
      "name": "properyTransferredEvent",
      "type": "event"
    },
    {
      "anonymous": false,
      "inputs": [
        {
          "indexed": false,
          "name": "message",
          "type": "string"
        }
      ],
      "name": "invalidEvent",
      "type": "event"
    },
    {
      "constant": false,
      "inputs": [
        {
          "name": "_userID",
          "type": "uint256"
        },
        {
          "name": "_userName",
          "type": "string"
        },
        {
          "name": "_userPassword",
          "type": "string"
        }
      ],
      "name": "registerUser",
      "outputs": [],
      "payable": false,
      "stateMutability": "nonpayable",
      "type": "function"
    },
    {
      "constant": false,
      "inputs": [
        {
          "name": "_ownerID",
          "type": "uint256"
        },
        {
          "name": "_ownerName",
          "type": "string"
        },
        {
          "name": "_ownerPassword",
          "type": "string"
        },
        {
          "name": "_propertyID",
          "type": "uint256"
        },
        {
          "name": "_propertyType",
          "type": "string"
        },
        {
          "name": "_propertyDimensions",
          "type": "string"
        },
        {
          "name": "_propertyAddress",
          "type": "string"
        },
        {
          "name": "_time",
          "type": "string"
        }
      ],
      "name": "registerProperty",
      "outputs": [],
      "payable": false,
      "stateMutability": "nonpayable",
      "type": "function"
    },
    {
      "constant": false,
      "inputs": [
        {
          "name": "_propertyID",
          "type": "uint256"
        },
        {
          "name": "_sellerID",
          "type": "uint256"
        },
        {
          "name": "_sellerName",
          "type": "string"
        },
        {
          "name": "_sellerPassword",
          "type": "string"
        },
        {
          "name": "_buyerID",
          "type": "uint256"
        },
        {
          "name": "_buyerName",
          "type": "string"
        },
        {
          "name": "_amount",
          "type": "uint256"
        },
        {
          "name": "_time",
          "type": "string"
        }
      ],
      "name": "transferProperty",
      "outputs": [],
      "payable": false,
      "stateMutability": "nonpayable",
      "type": "function"
    },
    {
      "constant": true,
      "inputs": [
        {
          "name": "_propertyID",
          "type": "uint256"
        }
      ],
      "name": "getPropertyByID",
      "outputs": [
        {
          "name": "",
          "type": "uint256"
        },
        {
          "name": "",
          "type": "string"
        },
        {
          "name": "",
          "type": "string"
        },
        {
          "name": "",
          "type": "string"
        },
        {
          "name": "",
          "type": "uint256"
        },
        {
          "name": "",
          "type": "string"
        },
        {
          "name": "",
          "type": "string"
        },
        {
          "name": "",
          "type": "uint256"
        }
      ],
      "payable": false,
      "stateMutability": "view",
      "type": "function"
    },
    {
      "constant": true,
      "inputs": [
        {
          "name": "_propertyID",
          "type": "uint256"
        },
        {
          "name": "_index",
          "type": "uint256"
        }
      ],
      "name": "getPrevOwner",
      "outputs": [
        {
          "name": "",
          "type": "uint256"
        },
        {
          "name": "",
          "type": "string"
        }
      ],
      "payable": false,
      "stateMutability": "view",
      "type": "function"
    }
  ],
  "bytecode": "0x608060405234801561001057600080fd5b50612e6d806100206000396000f30060806040526004361061006d576000357c0100000000000000000000000000000000000000000000000000000000900463ffffffff1680633e1d89f614610072578063657d28bf1461024d578063900a12c7146104b85780639486700b1461056f578063ff934a36146106d2575b600080fd5b34801561007e57600080fd5b5061024b60048036038101908080359060200190929190803590602001908201803590602001908080601f0160208091040260200160405190810160405280939291908181526020018383808284378201915050505050509192919290803590602001908201803590602001908080601f016020809104026020016040519081016040528093929190818152602001838380828437820191505050505050919291929080359060200190929190803590602001908201803590602001908080601f0160208091040260200160405190810160405280939291908181526020018383808284378201915050505050509192919290803590602001908201803590602001908080601f0160208091040260200160405190810160405280939291908181526020018383808284378201915050505050509192919290803590602001908201803590602001908080601f0160208091040260200160405190810160405280939291908181526020018383808284378201915050505050509192919290803590602001908201803590602001908080601f016020809104026020016040519081016040528093929190818152602001838380828437820191505050505050919291929050505061078b565b005b34801561025957600080fd5b50610278600480360381019080803590602001909291905050506110d5565b60405180898152602001806020018060200180602001888152602001806020018060200187815260200186810386528d818151815260200191508051906020019080838360005b838110156102da5780820151818401526020810190506102bf565b50505050905090810190601f1680156103075780820380516001836020036101000a031916815260200191505b5086810385528c818151815260200191508051906020019080838360005b83811015610340578082015181840152602081019050610325565b50505050905090810190601f16801561036d5780820380516001836020036101000a031916815260200191505b5086810384528b818151815260200191508051906020019080838360005b838110156103a657808201518184015260208101905061038b565b50505050905090810190601f1680156103d35780820380516001836020036101000a031916815260200191505b50868103835289818151815260200191508051906020019080838360005b8381101561040c5780820151818401526020810190506103f1565b50505050905090810190601f1680156104395780820380516001836020036101000a031916815260200191505b50868103825288818151815260200191508051906020019080838360005b83811015610472578082015181840152602081019050610457565b50505050905090810190601f16801561049f5780820380516001836020036101000a031916815260200191505b509d505050505050505050505050505060405180910390f35b3480156104c457600080fd5b506104ed600480360381019080803590602001909291908035906020019092919050505061165c565b6040518083815260200180602001828103825283818151815260200191508051906020019080838360005b83811015610533578082015181840152602081019050610518565b50505050905090810190601f1680156105605780820380516001836020036101000a031916815260200191505b50935050505060405180910390f35b34801561057b57600080fd5b506106d06004803603810190808035906020019092919080359060200190929190803590602001908201803590602001908080601f0160208091040260200160405190810160405280939291908181526020018383808284378201915050505050509192919290803590602001908201803590602001908080601f016020809104026020016040519081016040528093929190818152602001838380828437820191505050505050919291929080359060200190929190803590602001908201803590602001908080601f016020809104026020016040519081016040528093929190818152602001838380828437820191505050505050919291929080359060200190929190803590602001908201803590602001908080601f016020809104026020016040519081016040528093929190818152602001838380828437820191505050505050919291929050505061181c565b005b3480156106de57600080fd5b5061078960048036038101908080359060200190929190803590602001908201803590602001908080601f0160208091040260200160405190810160405280939291908181526020018383808284378201915050505050509192919290803590602001908201803590602001908080601f01602080910402602001604051908101604052809392919081815260200183838082843782019150505050505091929192905050506124ee565b005b610793612c9d565b61079b612cbf565b60606000808c81526020019081526020016000206060604051908101604052908160008201548152602001600182018054600181600116156101000203166002900480601f01602080910402602001604051908101604052809291908181526020018280546001816001161561010002031660029004801561085e5780601f106108335761010080835404028352916020019161085e565b820191906000526020600020905b81548152906001019060200180831161084157829003601f168201915b50505050508152602001600282018054600181600116156101000203166002900480601f0160208091040260200160405190810160405280929190818152602001828054600181600116156101000203166002900480156109005780601f106108d557610100808354040283529160200191610900565b820191906000526020600020905b8154815290600101906020018083116108e357829003601f168201915b5050505050815250509250600083600001511415610993578a836000018181525050898360200181905250888360400181905250826000808d815260200190815260200160002060008201518160000155602082015181600101908051906020019061096d929190612cfd565b50604082015181600201908051906020019061098a929190612cfd565b50905050610a15565b6109a183604001518a6127c4565b1515610a14577f8a0c25e9f6a4c9f2b249b722215983b425fe15eba9614d6bdaa3555e2862c6016040518080602001828103825260108152602001807f496e76616c69642070617373776f72640000000000000000000000000000000081525060200191505060405180910390a16110c8565b5b6001600089815260200190815260200160002060c0604051908101604052908160008201548152602001600182018054600181600116156101000203166002900480601f016020809104026020016040519081016040528092919081815260200182805460018160011615610100020316600290048015610ad75780601f10610aac57610100808354040283529160200191610ad7565b820191906000526020600020905b815481529060010190602001808311610aba57829003601f168201915b50505050508152602001600282018054600181600116156101000203166002900480601f016020809104026020016040519081016040528092919081815260200182805460018160011615610100020316600290048015610b795780601f10610b4e57610100808354040283529160200191610b79565b820191906000526020600020905b815481529060010190602001808311610b5c57829003601f168201915b50505050508152602001600382018054600181600116156101000203166002900480601f016020809104026020016040519081016040528092919081815260200182805460018160011615610100020316600290048015610c1b5780601f10610bf057610100808354040283529160200191610c1b565b820191906000526020600020905b815481529060010190602001808311610bfe57829003601f168201915b505050505081526020016004820160806040519081016040529081600082018054600181600116156101000203166002900480601f016020809104026020016040519081016040528092919081815260200182805460018160011615610100020316600290048015610cce5780601f10610ca357610100808354040283529160200191610cce565b820191906000526020600020905b815481529060010190602001808311610cb157829003601f168201915b5050505050815260200160018201548152602001600282018054600181600116156101000203166002900480601f016020809104026020016040519081016040528092919081815260200182805460018160011615610100020316600290048015610d7a5780601f10610d4f57610100808354040283529160200191610d7a565b820191906000526020600020905b815481529060010190602001808311610d5d57829003601f168201915b50505050508152602001600382015481525050815260200160088201805480602002602001604051908101604052809291908181526020018280548015610de057602002820191906000526020600020905b815481526020019060010190808311610dcc575b505050505081525050915060008260000151141515610e66577f8a0c25e9f6a4c9f2b249b722215983b425fe15eba9614d6bdaa3555e2862c60160405180806020018281038252601b8152602001807f50726f706572747920616c72656164792072656769737465726564000000000081525060200191505060405180910390a16110c8565b87826000018181525050868260200181905250848260400181905250858260600181905250610f10610ed5610e9a8a612975565b6040805190810160405280600181526020017f2e00000000000000000000000000000000000000000000000000000000000000815250612acc565b6040805190810160405280600181526020017f3100000000000000000000000000000000000000000000000000000000000000815250612acc565b90506080604051908101604052808281526020018c81526020018581526020016000815250826080018190525081600160008a8152602001908152602001600020600082015181600001556020820151816001019080519060200190610f77929190612cfd565b506040820151816002019080519060200190610f94929190612cfd565b506060820151816003019080519060200190610fb1929190612cfd565b506080820151816004016000820151816000019080519060200190610fd7929190612cfd565b50602082015181600101556040820151816002019080519060200190610ffe929190612cfd565b5060608201518160030155505060a0820151816008019080519060200190611027929190612d7d565b509050507fd988eac642acdbd206b1666f75d0b96bd12fe04350efb384b234754fdd042dce816040518080602001828103825283818151815260200191508051906020019080838360005b8381101561108d578082015181840152602081019050611072565b50505050905090810190601f1680156110ba5780820380516001836020036101000a031916815260200191505b509250505060405180910390a15b5050505050505050505050565b60006060806060600060608060006110eb612cbf565b600160008b815260200190815260200160002060c0604051908101604052908160008201548152602001600182018054600181600116156101000203166002900480601f0160208091040260200160405190810160405280929190818152602001828054600181600116156101000203166002900480156111ad5780601f10611182576101008083540402835291602001916111ad565b820191906000526020600020905b81548152906001019060200180831161119057829003601f168201915b50505050508152602001600282018054600181600116156101000203166002900480601f01602080910402602001604051908101604052809291908181526020018280546001816001161561010002031660029004801561124f5780601f106112245761010080835404028352916020019161124f565b820191906000526020600020905b81548152906001019060200180831161123257829003601f168201915b50505050508152602001600382018054600181600116156101000203166002900480601f0160208091040260200160405190810160405280929190818152602001828054600181600116156101000203166002900480156112f15780601f106112c6576101008083540402835291602001916112f1565b820191906000526020600020905b8154815290600101906020018083116112d457829003601f168201915b505050505081526020016004820160806040519081016040529081600082018054600181600116156101000203166002900480601f0160208091040260200160405190810160405280929190818152602001828054600181600116156101000203166002900480156113a45780601f10611379576101008083540402835291602001916113a4565b820191906000526020600020905b81548152906001019060200180831161138757829003601f168201915b5050505050815260200160018201548152602001600282018054600181600116156101000203166002900480601f0160208091040260200160405190810160405280929190818152602001828054600181600116156101000203166002900480156114505780601f1061142557610100808354040283529160200191611450565b820191906000526020600020905b81548152906001019060200180831161143357829003601f168201915b505050505081526020016003820154815250508152602001600882018054806020026020016040519081016040528092919081815260200182805480156114b657602002820191906000526020600020905b8154815260200190600101908083116114a2575b505050505081525050905060008160000151141561154e57600080600082925060206040519081016040528060008152509190602060405190810160405280600081525091906020604051908101604052806000815250919081915060206040519081016040528060008152509060206040519081016040528060008152509080905098509850985098509850985098509850611650565b806000015181602001518260400151836060015184608001516020015160008087608001516020015181526020019081526020016000206001018660800151604001518760a0015151869650859550849450828054600181600116156101000203166002900480601f0160208091040260200160405190810160405280929190818152602001828054600181600116156101000203166002900480156116355780601f1061160a57610100808354040283529160200191611635565b820191906000526020600020905b81548152906001019060200180831161161857829003601f168201915b50505050509250819150985098509850985098509850985098505b50919395975091939597565b60006060611668612c9d565b600080600160008881526020019081526020016000206008018681548110151561168e57fe5b906000526020600020015481526020019081526020016000206060604051908101604052908160008201548152602001600182018054600181600116156101000203166002900480601f0160208091040260200160405190810160405280929190818152602001828054600181600116156101000203166002900480156117565780601f1061172b57610100808354040283529160200191611756565b820191906000526020600020905b81548152906001019060200180831161173957829003601f168201915b50505050508152602001600282018054600181600116156101000203166002900480601f0160208091040260200160405190810160405280929190818152602001828054600181600116156101000203166002900480156117f85780601f106117cd576101008083540402835291602001916117f8565b820191906000526020600020905b8154815290600101906020018083116117db57829003601f168201915b50505050508152505090508060000151816020015180905092509250509250929050565b611824612cbf565b61182c612c9d565b611834612dca565b61183c612c9d565b6060600160008e815260200190815260200160002060c0604051908101604052908160008201548152602001600182018054600181600116156101000203166002900480601f0160208091040260200160405190810160405280929190818152602001828054600181600116156101000203166002900480156119005780601f106118d557610100808354040283529160200191611900565b820191906000526020600020905b8154815290600101906020018083116118e357829003601f168201915b50505050508152602001600282018054600181600116156101000203166002900480601f0160208091040260200160405190810160405280929190818152602001828054600181600116156101000203166002900480156119a25780601f10611977576101008083540402835291602001916119a2565b820191906000526020600020905b81548152906001019060200180831161198557829003601f168201915b50505050508152602001600382018054600181600116156101000203166002900480601f016020809104026020016040519081016040528092919081815260200182805460018160011615610100020316600290048015611a445780601f10611a1957610100808354040283529160200191611a44565b820191906000526020600020905b815481529060010190602001808311611a2757829003601f168201915b505050505081526020016004820160806040519081016040529081600082018054600181600116156101000203166002900480601f016020809104026020016040519081016040528092919081815260200182805460018160011615610100020316600290048015611af75780601f10611acc57610100808354040283529160200191611af7565b820191906000526020600020905b815481529060010190602001808311611ada57829003601f168201915b5050505050815260200160018201548152602001600282018054600181600116156101000203166002900480601f016020809104026020016040519081016040528092919081815260200182805460018160011615610100020316600290048015611ba35780601f10611b7857610100808354040283529160200191611ba3565b820191906000526020600020905b815481529060010190602001808311611b8657829003601f168201915b50505050508152602001600382015481525050815260200160088201805480602002602001604051908101604052809291908181526020018280548015611c0957602002820191906000526020600020905b815481526020019060010190808311611bf5575b5050505050815250509450600085600001511415611c8e577f8a0c25e9f6a4c9f2b249b722215983b425fe15eba9614d6bdaa3555e2862c6016040518080602001828103825260178152602001807f50726f706572747920646f6573206e6f7420657869737400000000000000000081525060200191505060405180910390a16124df565b6000808d81526020019081526020016000206060604051908101604052908160008201548152602001600182018054600181600116156101000203166002900480601f016020809104026020016040519081016040528092919081815260200182805460018160011615610100020316600290048015611d4f5780601f10611d2457610100808354040283529160200191611d4f565b820191906000526020600020905b815481529060010190602001808311611d3257829003601f168201915b50505050508152602001600282018054600181600116156101000203166002900480601f016020809104026020016040519081016040528092919081815260200182805460018160011615610100020316600290048015611df15780601f10611dc657610100808354040283529160200191611df1565b820191906000526020600020905b815481529060010190602001808311611dd457829003601f168201915b50505050508152505093508b8460000151141515611e76577f8a0c25e9f6a4c9f2b249b722215983b425fe15eba9614d6bdaa3555e2862c6016040518080602001828103825260158152602001807f53656c6c657220646f6573206e6f74206578697374000000000000000000000081525060200191505060405180910390a16124df565b611e848b85602001516127c4565b1515611ef7577f8a0c25e9f6a4c9f2b249b722215983b425fe15eba9614d6bdaa3555e2862c60160405180806020018281038252601a8152602001807f53656c6c6572206e616d6520646f6573206e6f74206d6174636800000000000081525060200191505060405180910390a16124df565b611f0584604001518b6127c4565b1515611f78577f8a0c25e9f6a4c9f2b249b722215983b425fe15eba9614d6bdaa3555e2862c6016040518080602001828103825260108152602001807f496e76616c69642050617373776f72640000000000000000000000000000000081525060200191505060405180910390a16124df565b846080015192508b836020015114151561201f577f8a0c25e9f6a4c9f2b249b722215983b425fe15eba9614d6bdaa3555e2862c60160405180806020018281038252602c8152602001807f596f7520617265206e6f7420617574686f72697a656420746f2073656c6c207481526020017f6869732070726f7065727479000000000000000000000000000000000000000081525060400191505060405180910390a16124df565b6000808a81526020019081526020016000206060604051908101604052908160008201548152602001600182018054600181600116156101000203166002900480601f0160208091040260200160405190810160405280929190818152602001828054600181600116156101000203166002900480156120e05780601f106120b5576101008083540402835291602001916120e0565b820191906000526020600020905b8154815290600101906020018083116120c357829003601f168201915b50505050508152602001600282018054600181600116156101000203166002900480601f0160208091040260200160405190810160405280929190818152602001828054600181600116156101000203166002900480156121825780601f1061215757610100808354040283529160200191612182565b820191906000526020600020905b81548152906001019060200180831161216557829003601f168201915b5050505050815250509150600082600001511415612207577f8a0c25e9f6a4c9f2b249b722215983b425fe15eba9614d6bdaa3555e2862c6016040518080602001828103825260148152602001807f427579657220646f6573206e6f7420657869737400000000000000000000000081525060200191505060405180910390a16124df565b6122158883602001516127c4565b1515612288577f8a0c25e9f6a4c9f2b249b722215983b425fe15eba9614d6bdaa3555e2862c6016040518080602001828103825260198152602001807f4275796572206e616d6520646f6573206e6f74206d617463680000000000000081525060200191505060405180910390a16124df565b6122e86122d26122978f612975565b6040805190810160405280600181526020017f2e00000000000000000000000000000000000000000000000000000000000000815250612acc565b6122e360018860a001515101612975565b612acc565b90506080604051908101604052808281526020018a815260200187815260200188815250856080018190525084600160008f815260200190815260200160002060008201518160000155602082015181600101908051906020019061234e929190612cfd565b50604082015181600201908051906020019061236b929190612cfd565b506060820151816003019080519060200190612388929190612cfd565b5060808201518160040160008201518160000190805190602001906123ae929190612cfd565b506020820151816001015560408201518160020190805190602001906123d5929190612cfd565b5060608201518160030155505060a08201518160080190805190602001906123fe929190612d7d565b50905050600160008e81526020019081526020016000206008018c90806001815401808255809150509060018203906000526020600020016000909192909190915055507f09642ba1c65e6f1c51ffacff7331aad81c899958969a2c75f1f4bfca121c9490816040518080602001828103825283818151815260200191508051906020019080838360005b838110156124a4578082015181840152602081019050612489565b50505050905090810190601f1680156124d15780820380516001836020036101000a031916815260200191505b509250505060405180910390a15b50505050505050505050505050565b6124f6612c9d565b6000808581526020019081526020016000206060604051908101604052908160008201548152602001600182018054600181600116156101000203166002900480601f0160208091040260200160405190810160405280929190818152602001828054600181600116156101000203166002900480156125b75780601f1061258c576101008083540402835291602001916125b7565b820191906000526020600020905b81548152906001019060200180831161259a57829003601f168201915b50505050508152602001600282018054600181600116156101000203166002900480601f0160208091040260200160405190810160405280929190818152602001828054600181600116156101000203166002900480156126595780601f1061262e57610100808354040283529160200191612659565b820191906000526020600020905b81548152906001019060200180831161263c57829003601f168201915b5050505050815250509050600081600001511415156126df577f8a0c25e9f6a4c9f2b249b722215983b425fe15eba9614d6bdaa3555e2862c6016040518080602001828103825260128152602001807f5573657220616c7265616479206578697374000000000000000000000000000081525060200191505060405180910390a16127be565b8381600001818152505082816020018190525081816040018190525080600080868152602001908152602001600020600082015181600001556020820151816001019080519060200190612734929190612cfd565b506040820151816002019080519060200190612751929190612cfd565b509050507f95a1f3a1dafdd4c1af344e3d7c69a72cbce8a3f15fe1cf95a7f5bd23df2e71a160405180806020018281038252601d8152602001807f5375636365737366756c6c79206372656174656420746865207573657200000081525060200191505060405180910390a15b50505050565b6000816040516020018082805190602001908083835b6020831015156127ff57805182526020820191506020810190506020830392506127da565b6001836020036101000a0380198251168184511680821785525050505050509050019150506040516020818303038152906040526040518082805190602001908083835b6020831015156128685780518252602082019150602081019050602083039250612843565b6001836020036101000a038019825116818451168082178552505050505050905001915050604051809103902060001916836040516020018082805190602001908083835b6020831015156128d257805182526020820191506020810190506020830392506128ad565b6001836020036101000a0380198251168184511680821785525050505050509050019150506040516020818303038152906040526040518082805190602001908083835b60208310151561293b5780518252602082019150602081019050602083039250612916565b6001836020036101000a03801982511681845116808217855250505050505090500191505060405180910390206000191614905092915050565b606060008060606000808614156129c3576040805190810160405280600181526020017f30000000000000000000000000000000000000000000000000000000000000008152509450612ac3565b8593505b6000841415156129ed578280600101935050600a848115156129e557fe5b0493506129c7565b826040519080825280601f01601f191660200182016040528015612a205781602001602082028038833980820191505090505b5091506001830390505b600086141515612abf57600a86811515612a4057fe5b066030017f010000000000000000000000000000000000000000000000000000000000000002828280600190039350815181101515612a7b57fe5b9060200101907effffffffffffffffffffffffffffffffffffffffffffffffffffffffffffff1916908160001a905350600a86811515612ab757fe5b049550612a2a565b8194505b50505050919050565b606080606080606060008088955087945084518651016040519080825280601f01601f191660200182016040528015612b145781602001602082028038833980820191505090505b50935083925060009150600090505b8551811015612bd6578581815181101515612b3a57fe5b9060200101517f010000000000000000000000000000000000000000000000000000000000000090047f0100000000000000000000000000000000000000000000000000000000000000028383806001019450815181101515612b9957fe5b9060200101907effffffffffffffffffffffffffffffffffffffffffffffffffffffffffffff1916908160001a9053508080600101915050612b23565b600090505b8451811015612c8e578481815181101515612bf257fe5b9060200101517f010000000000000000000000000000000000000000000000000000000000000090047f0100000000000000000000000000000000000000000000000000000000000000028383806001019450815181101515612c5157fe5b9060200101907effffffffffffffffffffffffffffffffffffffffffffffffffffffffffffff1916908160001a9053508080600101915050612bdb565b82965050505050505092915050565b6060604051908101604052806000815260200160608152602001606081525090565b6101206040519081016040528060008152602001606081526020016060815260200160608152602001612cf0612df3565b8152602001606081525090565b828054600181600116156101000203166002900490600052602060002090601f016020900481019282601f10612d3e57805160ff1916838001178555612d6c565b82800160010185558215612d6c579182015b82811115612d6b578251825591602001919060010190612d50565b5b509050612d799190612e1c565b5090565b828054828255906000526020600020908101928215612db9579160200282015b82811115612db8578251825591602001919060010190612d9d565b5b509050612dc69190612e1c565b5090565b608060405190810160405280606081526020016000815260200160608152602001600081525090565b608060405190810160405280606081526020016000815260200160608152602001600081525090565b612e3e91905b80821115612e3a576000816000905550600101612e22565b5090565b905600a165627a7a72305820db15eb60b902b3acbbe6ffb812d888a9d3ee72d657b112fbb8117c4bf56f33a80029",
  "source": "pragma solidity ^0.4.2;\n\ncontract PropertyRegistration {\n\n\tstruct User {\n\t\tuint ID;\n\t\tstring name;\n\t\tstring password;\n\t}\n\n\tstruct Owner {\n\t\tstring transactionID;\n\t\tuint userID;\n\t\tstring time;\n\t\tuint cost;\n\t}\n\n\tstruct Property {\n\t\tuint ID;\n\t\tstring pType;\n\t\tstring addres;\n\t\tstring dimensions;\n\t\tOwner currOwner;\n\t\tuint[] prevOwners;\n\t}\n\n\tmapping(uint => User) users;\n\n\tmapping(uint => Property) properties;\n\t\n\tevent successEvent (\n\t\tstring message\n\t);\n\n\tevent properyRegisteredEvent (\n\t\tstring transactionID\n\t);\n\n\tevent properyTransferredEvent (\n\t\tstring transactionID\n\t);\n\n\tevent invalidEvent (\n\t\tstring message\n\t);\n\t\n\tconstructor() public {\n\t}\n\n\tfunction registerUser(uint _userID, string _userName, string _userPassword) public {\n\t\tUser memory _user = users[_userID];\n\t\tif(_user.ID != 0) {\n\t\t\temit invalidEvent(\"User already exist\");\n\t\t\treturn;\n\t\t}\n\t\t_user.ID = _userID;\n\t\t_user.name = _userName;\n\t\t_user.password = _userPassword;\n\t\tusers[_userID] = _user;\n\t\temit successEvent(\"Successfully created the user\");\n\t}\n\n\tfunction registerProperty(uint _ownerID, string _ownerName, string _ownerPassword, uint _propertyID, string _propertyType, string _propertyDimensions, string _propertyAddress, string _time) public {\n\t\tUser memory _owner = users[_ownerID];\n\t\tif(_owner.ID == 0) {\n\t\t\t_owner.ID = _ownerID;\n\t\t\t_owner.name = _ownerName;\n\t\t\t_owner.password = _ownerPassword;\n\t\t\tusers[_ownerID] = _owner;\n\t\t} else {\n\t\t\tif(!equals(_owner.password, _ownerPassword)) {\n\t\t\t\temit invalidEvent(\"Invalid password\");\n\t\t\t\treturn;\n\t\t\t}\n\t\t}\n\n\t\tProperty memory _property = properties[_propertyID];\n\t\tif(_property.ID != 0) {\n\t\t\temit invalidEvent(\"Property already registered\");\n\t\t\treturn;\n\t\t}\n\t\t_property.ID = _propertyID;\n\t\t_property.pType = _propertyType;\n\t\t_property.addres = _propertyAddress;\n\t\t_property.dimensions = _propertyDimensions;\n\t\tstring memory _transactionID = strConcat(strConcat(uint2str(_propertyID), \".\"), \"1\");\n\t\t_property.currOwner = Owner(_transactionID, _ownerID, _time, 0);\n\t\tproperties[_propertyID] = _property;\n\n\t\temit properyRegisteredEvent(_transactionID);\n\t}\n\n\tfunction transferProperty(uint _propertyID, uint _sellerID, string _sellerName, string _sellerPassword, uint _buyerID, string _buyerName, uint _amount, string _time) public {\n\t\tProperty memory _property = properties[_propertyID];\n\t\tif(_property.ID == 0) {\n\t\t\temit invalidEvent(\"Property does not exist\");\n\t\t\treturn;\n\t\t}\n\t\t\n\t\tUser memory _seller = users[_sellerID];\n\t\tif(_seller.ID != _sellerID) {\n\t\t\temit invalidEvent(\"Seller does not exist\");\n\t\t\treturn;\n\t\t}\n\n\t\tif(!equals(_sellerName, _seller.name)) {\n\t\t\temit invalidEvent(\"Seller name does not match\");\n\t\t\treturn;\n\t\t}\n\n\t\tif(!equals(_seller.password, _sellerPassword)) {\n\t\t\temit invalidEvent(\"Invalid Password\");\n\t\t\treturn;\n\t\t}\n\n\t\tOwner memory _owner = _property.currOwner;\n\t\tif(_owner.userID != _sellerID) {\n\t\t\temit invalidEvent(\"You are not authorized to sell this property\");\n\t\t\treturn;\n\t\t}\n\n\t\tUser memory _buyer = users[_buyerID];\n\t\tif(_buyer.ID == 0) {\n\t\t\temit invalidEvent(\"Buyer does not exist\");\n\t\t\treturn;\n\t\t}\n\t\tif(!equals(_buyerName, _buyer.name)) {\n\t\t\temit invalidEvent(\"Buyer name does not match\");\n\t\t\treturn;\n\t\t}\n\t\tstring memory _transactionID = strConcat(strConcat(uint2str(_propertyID), \".\"), uint2str(_property.prevOwners.length+1));\n\t\t_property.currOwner = Owner(_transactionID, _buyerID, _time, _amount);\n\t\tproperties[_propertyID] = _property;\n\t\tproperties[_propertyID].prevOwners.push(_sellerID);\n\t\temit properyTransferredEvent(_transactionID);\n\t}\n\n\tfunction getPropertyByID(uint _propertyID) public view returns (uint, string, string, string, uint, string, string, uint) {\n\t\tProperty memory _property = properties[_propertyID];\n\t\tif(_property.ID == 0) {\n\t\t\treturn (0, \"\", \"\", \"\", 0, \"\", \"\", 0);\n\t\t}\n\t\treturn (_property.ID, _property.pType, _property.addres, _property.dimensions, _property.currOwner.userID, users[_property.currOwner.userID].name, _property.currOwner.time, _property.prevOwners.length);\n\t}\n\n\tfunction getPrevOwner(uint _propertyID, uint _index) public view returns(uint, string) {\n\t\tUser memory _prevOwner = users[properties[_propertyID].prevOwners[_index]];\n\t\treturn (_prevOwner.ID, _prevOwner.name);\n\t}\n\n\tfunction uint2str(uint _i) internal pure returns (string){\n\t    if (_i == 0) return \"0\";\n\t    uint j = _i;\n\t    uint length;\n\t    while (j != 0){\n\t        length++;\n\t        j /= 10;\n\t    }\n\t    bytes memory bstr = new bytes(length);\n\t    uint k = length - 1;\n\t    while (_i != 0){\n\t        bstr[k--] = byte(48 + _i % 10);\n\t        _i /= 10;\n\t    }\n\t    return string(bstr);\n\t}\n\n\tfunction strConcat(string _a, string _b) internal pure returns (string){\n\t    bytes memory _ba = bytes(_a);\n\t    bytes memory _bb = bytes(_b);\n\t    string memory ab = new string(_ba.length + _bb.length);\n\t    bytes memory bab = bytes(ab);\n\t    uint k = 0;\n\t    for (uint i = 0; i < _ba.length; i++) bab[k++] = _ba[i];\n\t    for (i = 0; i < _bb.length; i++) bab[k++] = _bb[i];\n\t    return string(bab);\n\t}\n\n\tfunction equals (string memory a, string memory b) internal pure returns (bool) {\n       return keccak256(abi.encodePacked(a)) == keccak256(abi.encodePacked(b));\n   }\n}\n",
  "sourcePath": "/home/toor/bosch-hackerearth/property-registration/contracts/PropertyRegistration.sol",
  "compiler": {
    "name": "solc",
    "version": "0.4.24+commit.e67f0147.Emscripten.clang"
  },
  "schemaVersion": "2.0.1",
  "updatedAt": "2019-03-24T14:22:02.593Z"
}